:020000040800F2
:1000000000000120E51E0008D1130008D9130008E4
:10001000E1130008E9130008F113000800000000D4
:10002000000000000000000000000000F9130008BC
:10003000071400080000000015140008231400082D
:10004000351F0008351F0008351F0008351F000840
:10005000351F0008351F0008351F0008351F000830
:10006000351F0008351F0008351F0008351F000820
:10007000351F0008351F0008351F0008351F000810
:10008000351F0008351F0008351F0008000000005C
:10009000000000000000000000000000351F000804
:1000A000351F0008351F0008351F0008351F0008E0
:1000B000351F0008351F0008351F0008351F0008D0
:1000C000351F0008351F0008351F0008351F0008C0
:1000D000351F0008351F0008351F0008000000000C
:1000E000351F0008351F0008351F000800000000FC
:1000F000000000000000000000000000351F0008A4
:1001000000000000351F0008351F0008351F0008DB
:1001100000000000000000000000000000000000DF
:10012000351F0008351F0008351F0008351F00085F
:10013000351F000800000000000000000000000063
:10014000000000000000000000000000351F000853
:10015000351F0008351F0008351F0008351F00082F
:10016000351F0008351F00080000000000000000D7
:10017000000000000000000000000000000000007F
:1001800000000000351F0008000000000000000013
:04019000351F00080F
:1001940010B5054C237833B9044B13B10448AFF3BD
:1001A40000800123237010BD100000200000000017
:1001B4008839000808B5034B1BB103490348AFF362
:1001C400008008BD000000001400002088390008E9
:1001D40053B94AB9002908BF00281CBF4FF0FF31AA
:1001E4004FF0FF3000F06AB9ADF1080C6DE904CEB0
:1001F40000F006F8DDF804E0DDE9022304B07047FE
:100204002DE9F047089D0C46002B4ED194468C45B1
:100214008646B2FA82F262D94AB1C2F12003914011
:1002240020FA03F30CFA02FC194300FA02FE4FEA27
:100234001C471FFA8CF6B1FBF7F44FEA1E4307FB89
:10024400141143EA014304FB06F199420AD91CEB59
:10025400030304F1FF3080F01281994240F20F81D0
:10026400023C6344591A1FFA8EF3B1FBF7F007FB03
:10027400101143EA014300FB06F69E420AD91CEB27
:10028400030300F1FF3180F0FC809E4240F2F980CC
:10029400634402389B1B40EA044000211DB1D34053
:1002A4000022C5E90032BDE8F0878B4205D90DB1C3
:1002B400C5E9000100210846F5E7B3FA83F10029F6
:1002C40046D1A34202D39042C0F0F080861A64EB78
:1002D40003030120002DE6D0C5E90063E3E7002A0B
:1002E40040F09080A1EB0C044FEA1C481FFA8CF7F5
:1002F4000121B4FBF8F64FEA1E4308FB164443EA17
:10030400044307FB06F0984208D91CEB030306F1EB
:10031400FF3402D2984200F2CD8026461C1A1FFAFE
:100324008EF3B4FBF8F008FB104443EA044300FBEB
:1003340007F79F4208D91CEB030300F1FF3402D2F4
:100344009F4200F2B0802046DB1B40EA0640A5E74E
:10035400C1F120068B4022FA06F71F4320FA06FC5F
:1003640004FA01F343EA0C03F44000FA01F8380CF0
:100374004FEA1349B4FBF0FE1FFA87FC00FB1E444E
:1003840049EA04440EFB0CF9A14502FA01F20AD928
:100394003C190EF1FF3A80F08480A14540F281803F
:1003A400AEF1020E3C44A4EB09041FFA83F9B4FB3A
:1003B400F0F300FB134449EA044403FB0CFCA4459A
:1003C40007D93C1903F1FF3067D2A44565D9023B34
:1003D4003C4443EA0E40A0FB0293A4EB0C049C4271
:1003E400CE469C4651D34ED055B1B8EB0E0364EBC8
:1003F4000C0404FA06F6CB401E43CC40C5E9006465
:10040400002150E7C2F1200320FA03F10CFA02FCA8
:1004140024FA03F394400C434FEA1C4800FA02FE0A
:100424001FFA8CF7B3FBF8F008FB1031230C43EAF6
:10043400014300FB07F1994208D91CEB030300F1C7
:10044400FF362CD299422AD9023863445B1AA4B2EB
:10045400B3FBF8F108FB113344EA034401FB07F34F
:10046400A34208D91CEB040401F1FF3613D2A342C2
:1004740011D902396444E41A41EA004139E70446D7
:10048400F0E6084606E7C845AED2B9EB020E63EBC8
:10049400070C0138A8E73146EDE7034699E73046F3
:1004A400D4E7D6467FE7634402384DE70646234641
:1004B40008460FE7023E634430E700BF704700BFC1
:1004C40080B582B000AF7860396000F024F9FCE7B1
:1004D40080B500AF044B01221A7000F02DF800F033
:1004E40005F800BF80BD00BF2C00002080B500AF20
:1004F40000F0FAF80346012B15D00C4B1B78012BA6
:1005040012D101F0A5F80146094B1A68094B1B6882
:10051400134403F5FA73994206D3044B00221A706C
:1005240000F006F900E000BF80BD00BF2C000020F1
:10053400340000203000002080B500AF054B1B784C
:10054400012B04D101F084F80346034A136000BF71
:1005540080BD00BF2C0000203000002080B500AF1B
:1005640000F0DFF800F0D1F800F0D2FF00F024FD35
:1005740000F010F8FFF7ACFF00BF80BD80B500AFFE
:1005840000F0C9F801F02AF800F012F8FFF7AEFF06
:1005940000BF80BD80B500AF01F06CF800F0AEFD87
:1005A400024B00221A7000BF80BD00BF0000002073
:1005B40080B582B000AFFB1D1946094800F0F2FD7A
:1005C4000346012B07D1074B00221A70FB79194609
:1005D400034801F091F800BF0837BD4680BD00BF55
:1005E400380000200000002080B400AF00BFBD46EA
:1005F4005DF8047B7047000080B582B000AF78607E
:100604000B467B80074B1B78002B05D17B88DBB224
:100614001946786800F09AFD01F060F800BF0837C9
:10062400BD4680BD0000002080B483B000AF154BF0
:100634001B78042B1BD801A252F823F0550600089E
:100644005B06000861060008670600086D060008DE
:100654000823FB800EE00023FB800BE00823FB80D3
:1006640008E03F23FB8005E08123FB8002E0812337
:10067400FB8000BFFB8818460C37BD465DF8047B41
:10068400704700BF0000002080B483B000AF154B5A
:100694001B78042B1BD801A252F823F0B5060008DE
:1006A400BB060008C1060008C7060008CD060008FE
:1006B4000823FB800EE00023FB800BE00823FB8073
:1006C40008E03F23FB8005E08123FB8002E08123D7
:1006D400FB8000BFFB8818460C37BD465DF8047BE1
:1006E400704700BF0000002080B582B000AF002337
:1006F400FB7100F0E1FF0346002B01D00123FB71E5
:10070400FB7918460837BD4680BD80B500AF00F0C0
:10071400DFFB00BF80BD80B500AF00F0E0FB00BF91
:1007240080BD80B500AF00F053F800BF80BD00006D
:1007340080B582B000AF00F063FC0346002B1CD0F0
:1007440000F0B4FB0346002B19D0FFF74DFF01F076
:1007540013FC00F02BFF00F05AFC02460A490B4B35
:1007640013408B6000F053FC034604331B687B602A
:1007740000F036F87B68984702E000BF00E000BF55
:100784000837BD4680BD00BF00ED00E000C0000892
:1007940080B586B000AFF860B9601346FB80BB68D3
:1007A4007B61FB683B6109E07A69531C7B613B69AF
:1007B400591C396112781A70FFF7ADFFFB885A1E75
:1007C400FA80002BF0D100BF00BF1837BD4680BDB2
:1007D40080B400AF72B600BFBD465DF8047B7047BD
:1007E40080B400AF62B600BFBD465DF8047B7047BD
:1007F40080B400AF064B4FF0FF321A60054B4FF048
:10080400FF321A6000BFBD465DF8047B704700BF2D
:10081400BC000020C002002080B586B000AFF860A4
:10082400B9607A60BB685A1E1C494FF400331944FE
:10083400FB68CB1A013B9A4201D900232AE0F868ED
:1008440000F0F0FA0346FF2B09D0FA68BB681344A2
:10085400013B184600F0E6FA0346FF2B01D10023C2
:1008640018E0FB6823F4FF7323F001037B610C4A57
:100874007B69934207D1BB687A68F968094800F03C
:1008840067F9034606E0BB687A68F968064800F031
:100894005FF9034618461837BD4680BD00000208BC
:1008A40000C00008C0020020BC00002080B584B055
:1008B40000AF786039603B685A1E16494FF4003324
:1008C40019447B68CB1A013B9A4201D900231CE0EE
:1008D400786800F0A7FA0346FB737A683B68134410
:1008E400013B184600F09EFA0346BB73FB7BFF2BCB
:1008F40002D0BB7BFF2B01D1002306E0BA7BFB7B3C
:100904001146184600F030FA034618461037BD4623
:1009140080BD00BF0000020880B582B000AF002394
:100924007B601E4B1B68B3F1FF3F01D1012331E013
:100934001B4B1A687B6813447B601A4B1A687B68EC
:1009440013447B60184B1A687B6813447B60174B15
:100954001A687B6813447B60154B1A687B681344E0
:100964007B60144B1A687B6813447B60124B1A68D3
:100974007B6813447B607B68DB437B607B6801336B
:100984007B600E4B03F5D6733A1D04211846FFF71E
:1009940043FF034618460837BD4680BDC002002009
:1009A400C4020020C8020020CC020020D002002093
:1009B400D4020020D8020020DC02002000C000087D
:1009C40080B483B000AF00237B601E4B1B687A6841
:1009D40013447B601B4B04331B687A6813447B60AD
:1009E400184B08331B687A6813447B60154B0C332F
:1009F4001B687A6813447B60124B10331B687A6857
:100A040013447B600F4B14331B687A6813447B6078
:100A14000C4B18331B687A6813447B60094B03F54D
:100A2400D6731B687A6813447B607B68002B01D102
:100A3400012300E0002318460C37BD465DF8047B13
:100A4400704700BF00C0000880B500AF0E4B1B68A4
:100A5400B3F1FF3F07D00C4800F0DCF80346002B4D
:100A640001D100230DE0094B1B68B3F1FF3F07D010
:100A7400064800F0CFF80346002B01D1002300E024
:100A84000123184680BD00BFC0020020BC00002026
:100A940080B400AF024B1846BD465DF8047B704736
:100AA40000C0000880B582B000AF786039603B6850
:100AB400C3F30803002B01D0002312E07B681B68FA
:100AC4003A689A4201D101230BE07B683A681A60C4
:100AD4007B6804334FF4007239681846FFF758FEF8
:100AE400012318460837BD4680BD000080B582B09A
:100AF40000AF786039607B68124A934202D1124B8E
:100B04007B6010E0114A3B68934204D10D4B7B603B
:100B14000E4B3B6007E0786800F07CF80346002B3E
:100B240001D1002309E039687868FFF7BBFF034669
:100B3400002B01D1002300E07B6818460837BD462E
:100B440080BD00BFC0020020BC00002000C000081F
:100B540080B588B000AFF860B9607A603B60BB686C
:100B640023F4FF7323F001037B61FB681B68B3F17B
:100B7400FF3F08D17969F868FFF794FF0346002B1B
:100B840001D1002342E0FB681B687A699A4209D0CC
:100B94007969F868FFF7AAFFF860FB68002B01D1B8
:100BA400002333E0FB681B68BA68D31AFA6813445D
:100BB4000433FB617B68BB61FFF7ADFDFB68043365
:100BC400FA69D31AB3F5007F0FD37B6903F5007379
:100BD4001946F868FFF78AFFF860FB68002B01D11B
:100BE400002313E0FB680433FB61BB691A78FB69DB
:100BF4001A70FB690133FB61BB690133BB613B685C
:100C0400013B3B603B68002BD6D1012318462037BB
:100C1400BD4680BDB0B586B000AF78600123FB74DB
:100C240001F05EFB00237B6129E07B681A687B6925
:100C34009B001344FB607B699B007A681344043374
:100C44001B68BB60FFF767FDBB6800221C461546A6
:100C540022462B46F968022001F0EEFA0346002BE7
:100C640002D00023FB740DE0FB681B68BA689A424B
:100C740002D00023FB7405E07B6901337B617B694F
:100C84007F2BD2D901F04EFBFB7C18461837BD46AA
:100C9400B0BD000080B588B000AF0346FB710023EF
:100CA400FB770023BB7752E0BA7F2D4913465B00E4
:100CB40013449B000B4408331B78FA799A4243D1BE
:100CC400BA7F274913465B0013449B000B441B68FF
:100CD4003B61BA7F224913465B0013449B000B44DB
:100CE40004331B68FB603B6903F00303002B04D14E
:100CF400FB6803F00303002B04D04FF42E71194852
:100D0400FFF7DEFB0123FB773B697B610023BB61BB
:100D140014E0BB69DBB2002B01D1FFF7FCFC7B695B
:100D24001B68B3F1FF3F03D00023FB7700BF11E042
:100D34007B6904337B61BB690133BB61FB689B083E
:100D4400BA699A42E5D305E0BB7F0133BB77BB7F29
:100D5400022BA9D9FB7F18462037BD4680BD00BFB2
:100D6400C8390008A039000880B58AB000AF03462E
:100D74000A46FB711346BB71012387F82730002311
:100D8400FB60FA79BB799A4202D9002387F82730AD
:100D94000322FB79934203D30522BB79934202D900
:100DA400002387F8273097F82730012B33D100230D
:100DB4003B6102233B620123FB6101F091FAFB7961
:100DC40087F8263020E097F826301846FFF762FFB0
:100DD4000346002B13D1FFF79EFC97F82630BB6126
:100DE40007F10C0207F110031146184601F0EAFB63
:100DF4000346002B03D0002387F8273009E097F837
:100E04002630013387F8263097F82620BB799A429A
:100E1400D9D901F087FA97F8273018462837BD4604
:100E240080BD000080B584B000AF7860FF23FB7301
:100E34000023BB732FE0FFF76EFCBA7B1A491346FD
:100E44005B0013449B000B441B687A689A421FD3CF
:100E5400BA7B154913465B0013449B000B44196885
:100E6400BA7B114813465B0013449B0003440433CC
:100E74001B680B447A689A420AD2BA7B0A49134621
:100E84005B0013449B000B4408331B78FB7305E0A1
:100E9400BB7B0133BB73BB7B022BCCD9FB7B1846DA
:100EA4001037BD4680BD00BFC839000880B500AF0B
:100EB4004FF40051054801F02BFE0346012B01D1EC
:100EC400002300E00123184680BD00BF0008024053
:100ED40080B400AF00BFBD465DF8047B704780B4AA
:100EE40000AF00BFBD465DF8047B704780B500AF1E
:100EF40001F020F800F032F800F006F8FFF72EFBBE
:100F0400FFF73CFBFCE7000080B500AF114B124A31
:100F14001A60104B4FF4E1325A600E4B00229A6073
:100F24000C4B0022DA600B4B4FF480621A61094BC0
:100F34000C225A61074B00229A61064B0022DA61A7
:100F4400044801F031FE0346002B01D000F02EF8D6
:100F540000BF80BDC40400200044004080B483B0BE
:100F640000AF00237B60104B1B6B0F4A43F08003E0
:100F740013630D4B1B6B03F080037B607B680023C2
:100F84003B60094B1B6B084A43F001031363064B98
:100F94001B6B03F001033B603B6800BF0C37BD468D
:100FA4005DF8047B704700BF0038024080B400AF96
:100FB40072B600BF00BFFDE780B500AFFFF718FCB5
:100FC40000BF80BD80B584B000AFF860B9607A60BE
:100FD4007A68B968F868FFF71FFC034618461037AB
:100FE400BD4680BD80B582B000AF78603960396895
:100FF4007868FFF75BFC034618460837BD4680BD9A
:1010040080B500AFFFF7DCFC0346184680BD80B511
:1010140000AFFFF73DFD0346184680BD80B500AF25
:10102400FFF77AFC0346002B01D1002302E0FFF70F
:101034000BFD0346184680BD80B483B000AF7860D2
:101044007B68DB6843F400527B68DA6000BF0C37CE
:10105400BD465DF8047B704780B483B000AF786010
:101064007B68DB6823F400527B68DA6000BF0C37CE
:10107400BD465DF8047B704780B483B000AF7860F0
:101084007B681B6803F02003202B0CBF0123002383
:10109400DBB218460C37BD465DF8047B704780B45C
:1010A40083B000AF78607B681B6803F08003802BFB
:1010B4000CBF01230023DBB218460C37BD465DF894
:1010C400047B704780B483B000AF78607B685B6852
:1010D400DBB218460C37BD465DF8047B704780B41C
:1010E40083B000AF78600B46FB70FA787B685A6077
:1010F40000BF0C37BD465DF8047B704780B500AF78
:101104001048FFF7A9FF104B4FF4E1321A600E4B61
:1011140000225A600C4B00229A600B4B0022DA60CA
:10112400094B0C221A61084B00225A61064B00221B
:101134009A610549034802F09DFB0248FFF77CFFD2
:1011440000BF80BD004400400C05002080B584B081
:1011540000AF78600B46FB70FB78082B03D9932112
:101164000F48FFF7ADF9FB78184600F099F8002313
:10117400FB810BE0FFF7CFFAFB897A6813441B78F5
:10118400184600F08DF8FB890133FB81FB789BB294
:10119400FA899A42EED300BF00BF1037BD4680BD26
:1011A400B439000880B582B000AF786039602A4B4A
:1011B4001B78002B19D1294800F058F80346012B5D
:1011C40045D1264B1B78002B41D0244B1B78082B90
:1011D4003DD800F03DFA0346214A1360214B00221A
:1011E4001A701D4B01221A7031E01E4B1B7801331B
:1011F4001A4A1344184600F039F80346012B1BD150
:10120400184B1B780133DAB2164B1A70134B1A7849
:10121400144B1B789A421AD17B681349114A1278ED
:101224001846FFF7B5FA0C4B00221A700D4B1A78CA
:101234003B681A7001230BE000F00AFA0246084BDF
:101244001B68C8339A4202D9034B00221A70002348
:1012540018460837BD4680BD280500202C0500200F
:10126400380500203C0500202D05002080B582B003
:1012740000AF78600948FFF7FFFE0346002B08D053
:101284000648FFF71FFF03461A467B681A700123BE
:1012940000E0002318460837BD4680BD00440040E6
:1012A40080B584B000AF0346FB71FB7919460E4844
:1012B400FFF715FF00F0CCF903460A33FB6007E0A3
:1012C400FFF729FA00F0C4F90246FB68934206D3FB
:1012D4000548FFF7E4FE0346002BF1D000E000BF11
:1012E40000BF1037BD4680BD0044004080B483B0C9
:1012F40000AF00237B60104B5B6C0F4A43F48043C8
:1013040053640D4B5B6C03F480437B607B68002368
:101314003B60094B1B6C084A43F080531364064B33
:101324001B6C03F080533B603B6800BF0C37BD4629
:101334005DF8047B704700BF0038024080B58AB076
:1013440000AF786007F1140300221A605A609A60B3
:10135400DA601A617B681B68194A93422BD1002317
:101364003B61184B1B6C174A43F400331364154B51
:101374001B6C03F400333B613B690023FB60114B9E
:101384001B6B104A43F0010313630E4B1B6B03F0FA
:101394000103FB60FB680C237B610223BB61012317
:1013A400FB6103233B6207237B6207F114031946A5
:1013B400054801F029FA00BF2837BD4680BD00BFAB
:1013C40000440040003802400000024080B400AFF6
:1013D40000BFFDE780B400AF00BFFDE780B400AFFD
:1013E40000BFFDE780B400AF00BFFDE780B400AFED
:1013F40000BFFDE780B400AF00BFBD465DF8047BCD
:10140400704780B400AF00BFBD465DF8047B7047F1
:1014140080B400AF00BFBD465DF8047B704780B563
:1014240000AF00F00FFE00BF80BD000080B400AF2D
:10143400064BD3F88830054A43F47003C2F8883069
:1014440000BFBD465DF8047B704700BF00ED00E0BF
:1014540080B485B000AF7860084B5A6C07497B684C
:1014640013434B64054B5A6C7B681340FB60FB6869
:1014740000BF1437BD465DF8047B70470038024056
:1014840080B483B000AF7860064B5A6C7B68DB4352
:10149400044913404B6400BF0C37BD465DF8047B20
:1014A400704700BF0038024080B483B000AF78605A
:1014B400054B5A6A04497B6813434B6200BF0C37DF
:1014C400BD465DF8047B70470038024080B483B0A9
:1014D40000AF7860064B5A6A7B68DB4304491340CB
:1014E4004B6200BF0C37BD465DF8047B704700BFFC
:1014F4000038024080B400AF044B9B6803F460439F
:101504001846BD465DF8047B704700BF00380240B2
:1015140090B585B000AF0120FFF79AFF1D4B1C6802
:10152400FFF7E8FF03465B0B1B4AD35C24FA03F383
:10153400FB60FFF7DFFF0346002B01D1012300E02E
:101544000223FB72FA7AFB6802FB03F37B60134B02
:1015540001221A60114B4FF6FF72DA627B685B0955
:101564000F4AA2FB0323DB090C4A013B93620B4B9A
:101574005B690A4A43F0010353610A4B00221A6073
:10158400064B5B6A9AB2084B1A8000BF1437BD46FB
:1015940090BD00BF04000020FC3900080000014099
:1015A400C55A7C0A400500204405002080B500AFE0
:1015B4000120FFF779FF0120FFF788FF0120FFF7E3
:1015C4005FFF054B00221A60034B00225A60024B56
:1015D40000229A6000BF80BD10E000E080B483B0B8
:1015E40000AF174B5B6AFB80164B1B88FA88D31A33
:1015F400BB80BB88632B1CD9BB88134AA2FB032383
:101604005B097B807A88114B1B6813440F4A136073
:101614007B881A46920013441A4691001A460B46D8
:1016240013449B009AB2074B1B8813449AB2054B90
:101634001A8000BF0C37BD465DF8047B704700BFBD
:1016440000000140440500201F85EB5140050020A7
:1016540080B500AFFFF7C2FF014B1B68184680BD81
:101664004005002080B500AFFFF7F2FF034618469F
:1016740080BD000080B400AF0E4B002283F88120AF
:101684000C4B0022C3F888200A4B002283F88420E4
:10169400084B0022A3F88620064B002283F88320FF
:1016A400044B002283F8822000BFBD465DF8047B12
:1016B400704700BF4805002080B400AF064B93F884
:1016C4008130002B01D1002300E001231846BD46E0
:1016D4005DF8047B704700BF4805002080B400AF6C
:1016E400044B002283F8842000BFBD465DF8047BD0
:1016F400704700BF4805002080B582B000AF786015
:101704000B46FB707B681B78FF2B03D1786800F0D5
:1017140079F9B7E06A4B93F88130012B40F0CB8024
:101724007B681B78C93B352B00F2A88001A252F8D4
:1017340023F000BF51180008811800088118000820
:101744007918000881180008811800087118000829
:101754005918000869180008611800088118000861
:1017640081180008811800088118000881180008F1
:1017740081180008811800088118000881180008E1
:1017840081180008811800088118000881180008D1
:1017940081180008811800088118000881180008C1
:1017A40081180008811800088118000881180008B1
:1017B40081180008811800088118000881180008A1
:1017C4008118000881180008811800088118000891
:1017D40081180008811800088118000829180008D9
:1017E40019180008111800082118000881180008A9
:1017F40081180008811800083118000881180008B1
:10180400391800084118000849180008786800F0E1
:10181400CBF937E0786800F003FA33E0786800F039
:10182400A9F92FE0786800F041FA2BE0786800F01D
:1018340079F927E0786800F069F923E0786800F026
:1018440041F91FE0786800F025F91BE0786800F0A2
:1018540087FA17E0786800F0B3FA13E0786800F0CC
:1018640059FA0FE0786800F0F5FA0BE0786800F0B8
:1018740017FB07E0786800F027FB03E0202000F066
:101884005FF800BF0E4B93F88430012B02D1102077
:1018940000F056F80A4BB3F98630002B0CDD084BE8
:1018A400012283F88420064BB3F986301946044894
:1018B40000F008F800E000BF0837BD4680BD00BF57
:1018C4004805002080B582B000AF78600B467B806D
:1018D4007B8819467868FEF78FFE00BF0837BD463F
:1018E40080BD80B586B000AFF860B9607A6000232F
:1018F400FB7509E0FB681A78FB7D1344FB75FB68F4
:101904000133FB60FEF707FFBB685A1EBA60002B69
:10191400F0D1FA7D7B681A60012318461837BD465A
:1019240080BD000080B400AF044B002283F8822005
:1019340000BFBD465DF8047B704700BF480500202A
:1019440080B483B000AF0346FB71084BFE221A70CB
:10195400064AFB795370054B0222A3F8862000BF88
:101964000C37BD465DF8047B704700BF4805002076
:1019740080B485B000AF78600023FB607B680333DC
:101984001B781A46FB681343FB607B6802331B78A1
:101994001B02FA681343FB607B6801331B781B044A
:1019A400FA681343FB607B681B781B06FA681343D1
:1019B400FB60FB6818461437BD465DF8047B70472E
:1019C40080B483B000AF786039603B6803337A68D1
:1019D400D2B21A707B681A0A3B680233D2B21A7008
:1019E4007B681A0C3B680133D2B21A707B681B0EF9
:1019F400DAB23B681A7000BF0C37BD465DF8047B51
:101A04007047000080B582B000AF7860FFF78AFFAE
:101A14001F4B012283F881201D4BFF221A701C4B9F
:101A240000225A701A4B5B7843F01003DAB2184B59
:101A34005A70174B00229A70154B9B7843F00103A0
:101A4400DAB2134B9A70FEF7EFFD0346DAB2104B8D
:101A5400DA70FEF719FE03461B0A9BB2DAB20C4B8E
:101A64001A71FEF711FE0346DAB2094B5A71084B9C
:101A740001229A71064B0122DA71054B0822A3F860
:101A84008620FFF799FA00BF0837BD4680BD00BF26
:101A94004805002080B582B000AF7860084B002272
:101AA40083F88120FFF73EFF054BFF221A70044B99
:101AB4000122A3F8862000BF0837BD4680BD00BFC1
:101AC4004805002080B483B000AF78600E4BFF223D
:101AD4001A700D4B00225A700B4B93F882200A4B5C
:101AE4009A70094B0022DA70074B00221A71064BD8
:101AF40000225A71044B0622A3F8862000BF0C373B
:101B0400BD465DF8047B70474805002080B582B06F
:101B140000AF78600020FFF713FF00BF0837BD4611
:101B240080BD000080B584B000AF78600E4BFF220A
:101B34001A700E4A0C4BC3F888200B4B00225A70C3
:101B4400094B00229A70084B0022DA700723FB60CD
:101B54000749F868FFF734FF034B0822A3F88620EF
:101B640000BF1037BD4680BD48050020043A000878
:101B74004C05002080B582B000AF7860094BFF228D
:101B84001A707B6804331846FFF7F2FE0346054AD1
:101B9400C2F88830034B0122A3F8862000BF08371F
:101BA400BD4680BD4805002080B584B000AF786094
:101BB400FEF73AFD03461A467B6801331B789A42C6
:101BC40003D82220FFF7BCFE23E07B6801331B7897
:101BD400FB81114BBB60BB68104AD2F88810FA89AC
:101BE4001846FEF7D5FD0D4BFF221A700B4BD3F8A8
:101BF40088307A68013212781344084AC2F888306F
:101C04007B6801331B7801339BB21AB2034BA3F8F0
:101C140086201037BD4680BD4905002048050020B8
:101C240080B584B000AF7860FEF7FEFC03461A4628
:101C34007B6801331B789A4203D82220FFF780FE89
:101C44002CE07B6804331846FFF792FE0346154ADE
:101C5400C2F888307B6801331B78FB81124BBB6070
:101C6400BB68104AD2F88810FA891846FEF790FD2E
:101C74000C4BFF221A700B4BD3F888307A68013270
:101C840012781344074AC2F888307B6801331B7802
:101C940001339BB21AB2034BA3F886201037BD461A
:101CA40080BD00BF480500204905002080B586B0EE
:101CB40000AF78600023FB60144BFF221A707B682E
:101CC40004331846FFF754FE7861104BD3F888307C
:101CD40007F10C0279691846FFF703FE0346FB740B
:101CE4000A4AFB7C5370FB6809491846FFF768FEF3
:101CF400064B00229A70054B0022DA70034B08222F
:101D0400A3F8862000BF1837BD4680BD48050020D3
:101D14004C05002080B582B000AF78600F4BFF22E5
:101D24001A700E4B00225A700C4B00229A70FEF768
:101D34007BFC0346DAB2094BDA70084B00221A71B5
:101D4400064B00225A71054B00229A71034B07225D
:101D5400A3F8862000BF0837BD4680BD4805002093
:101D640090B583B000AF7860144BD3F88840FEF789
:101D74005BFC0346013B19467B6801331A46204647
:101D8400FFF720F90346002B03D13120FFF7D8FDDC
:101D940011E00A4BFF221A70FEF746FC03465A1E56
:101DA400064BD3F888301344044AC2F88830034BF6
:101DB4000122A3F886200C37BD4690BD48050020BB
:101DC40080B582B000AF7860FEF72EFC0346013B7D
:101DD4007A6801321278934203DC2220FFF7B0FDC7
:101DE40033E01B4BFF221A70194B0122A3F8862003
:101DF4007B6801331B78002B08D1FFF70FF90346EA
:101E0400002B21D13120FFF79BFD1DE0104BD3F8AF
:101E140088007B6801331B7819467B6802331A46B5
:101E2400FFF7D0F80346002B03D13120FFF788FDDC
:101E34000BE0074BD3F888307A68013212781344E8
:101E4400034AC2F8883000E000BF0837BD4680BDB1
:101E54004805002080B584B000AF78600F4BD3F8FC
:101E64008830FB607B6804331846FFF781FDB86057
:101E7400B968F868FFF7B6F80346002B03D13120A0
:101E8400FFF75EFD06E0054BFF221A70034B0122AB
:101E9400A3F886201037BD4680BD00BF480500204A
:101EA40080B582B000AF7860FEF742FC054BFF229C
:101EB4001A70044B0122A3F8862000BF0837BD46E0
:101EC40080BD00BF4805002080B582B000AF7860B7
:101ED4003120FFF735FD00BF0837BD4680BD000047
:101EE400DFF834D0FFF7A2FA0C480D490D4A00235D
:101EF40002E0D458C4500433C4188C42F9D30A4ABB
:101F04000A4C002301E013600432A242FBD301F027
:101F140015FDFEF7EBFF70470000012000000020D4
:101F2400100000201C3A000810000020F8050020D2
:101F3400FEE7000080B500AF0E4B1B680D4A43F46A
:101F4400007313600B4B1B680A4A43F480631360ED
:101F5400084B1B68074A43F480731360032000F0A6
:101F640037F9002000F03EF8FFF7C0F900231846C7
:101F740080BD00BF003C024080B500AF114B124A47
:101F84001A62104B00221A620E4B104A5A620D4B11
:101F940000225A620B4B0E4A1A610A4B00221A6144
:101FA400084B80225A61074B00225A61054B4FF0BF
:101FB400FF329A61034B00229A6100F00BF8002370
:101FC400184680BD003802400FC8E210317907007E
:101FD4009F10600080B400AF00BFBD465DF8047B75
:101FE4007047000080B582B000AF7860124B1A6869
:101FF400124B1B7819464FF47A73B3FBF1F3B2FB1F
:10200400F3F3184600F00BF90346002B01D001232B
:102014000EE07B680F2B0AD8002279684FF0FF305E
:1020240000F0E1F8064A7B681360002300E0012316
:1020340018460837BD4680BD040000200C0000206F
:102044000800002080B400AF064B1B781A46064BEC
:102054001B681344044A136000BFBD465DF8047B4B
:10206400704700BF0C000020D405002080B485B068
:1020740000AF78607B6803F00703FB600C4BDB6800
:10208400BB60BA684FF6FF031340BB60FB681A02DB
:10209400BB68134343F0BF6343F40033BB60044A9B
:1020A400BB68D36000BF1437BD465DF8047B70473E
:1020B40000ED00E080B400AF044BDB681B0A03F0C2
:1020C40007031846BD465DF8047B704700ED00E049
:1020D40080B483B000AF03463960FB7197F90730D1
:1020E400002B0ADB3B68DAB20C4997F9073012017E
:1020F400D2B20B4483F800230AE03B68DAB2084901
:10210400FB7903F00F03043B1201D2B20B441A769D
:1021140000BF0C37BD465DF8047B704700E100E06A
:1021240000ED00E080B489B000AFF860B9607A6077
:10213400FB6803F00703FB61FB69C3F10703042B8E
:1021440028BF0423BB61FB690433062B02D9FB6956
:10215400033B00E000237B614FF0FF32BB6902FACE
:1021640003F3DA43BB681A407B699A404FF0FF31AE
:102174007B6901FA03F3D9437B680B401343184688
:102184002437BD465DF8047B7047000080B582B0FB
:1021940000AF78607B68013BB3F1807F01D30123FA
:1021A4000FE00A4A7B68013B53600F214FF0FF3078
:1021B400FFF78EFF054B00229A60044B07221A603A
:1021C400002318460837BD4680BD00BF10E000E07C
:1021D40080B582B000AF78607868FFF747FF00BF32
:1021E4000837BD4680BD80B586B000AF0346B960F0
:1021F4007A60FB7300237B61FFF75CFF78617A6888
:10220400B9687869FFF78EFF024697F90F301146D7
:102214001846FFF75DFF00BF1837BD4680BD80B587
:1022240082B000AF78607868FFF7B0FF03461846C5
:102234000837BD4680BD000080B586B000AFF860A9
:10224400B960C7E900230123FB75234B1B7E012BD7
:1022540001D102233BE0204B01221A764CF250308C
:1022640000F070F80346FB75FB7D002B2BD1FB6857
:10227400002B05D13B781946B86800F01BF916E02D
:10228400FB68012B05D13B881946B86800F0EEF8CD
:102294000DE0FB68022B05D13B681946B86800F0D5
:1022A400C3F804E0D7E90023B86800F08BF84CF2D7
:1022B400503000F047F80346FB75084B1B69074A8A
:1022C40023F001031361044B00221A76FB7D1846A8
:1022D4001837BD4680BD00BFD8050020003C024031
:1022E40080B483B000AF0023FB710B4B1B69002B40
:1022F4000BDA094B094A5A60074B094A5A60064BE4
:102304001B69002B01DA0123FB71FB7918460C379A
:10231400BD465DF8047B7047003C024023016745DD
:10232400AB89EFCD80B400AF054B1B69044A43F081
:102334000043136100231846BD465DF8047B7047D3
:10234400003C024080B584B000AF78600023FB609D
:102354001A4B0022DA61FFF785F9F86010E07B6818
:10236400B3F1FF3F0CD07B68002B07D0FFF77AF95D
:102374000246FB68D31A7A689A4201D2032319E011
:102384000F4BDB6803F48033002BE8D10C4BDB6884
:1023940003F00103002B02D0094B0122DA60084B41
:1023A400DB6803F4F973002B03D000F0A5F80123D4
:1023B40000E0002318461037BD4680BDD805002034
:1023C400003C024080B485B000AFF860C7E9002348
:1023D400144B1B69134A23F440731361114B1B699B
:1023E400104A43F4407313610E4B1B690D4A43F0CA
:1023F40001031361FB683A681A60BFF36F8F00BF73
:10240400D7E900014FF000024FF000030A00002357
:10241400F968043113460B6000BF1437BD465DF8FC
:10242400047B7047003C024080B483B000AF786006
:1024340039600D4B1B690C4A23F4407313610A4B3A
:102444001B69094A43F400731361074B1B69064A6D
:1024540043F0010313617B683A681A6000BF0C37CC
:10246400BD465DF8047B7047003C024080B483B0F5
:1024740000AF78600B467B800D4B1B690C4A23F43C
:10248400407313610A4B1B69094A43F48073136157
:10249400074B1B69064A43F0010313617B687A8882
:1024A4001A8000BF0C37BD465DF8047B704700BF3F
:1024B400003C024080B483B000AF78600B46FB70F0
:1024C4000C4B1B690B4A23F440731361094B094AF3
:1024D4001B691361074B1B69064A43F0010313612F
:1024E4007B68FA781A7000BF0C37BD465DF8047B30
:1024F400704700BF003C024080B400AF2F4BDB6844
:1025040003F01003002B08D02D4BDB6943F01003BC
:102514002B4AD361294B1022DA60284BDB6803F085
:102524002003002B08D0264BDB6943F00803244A20
:10253400D361224B2022DA60204BDB6803F0400396
:10254400002B08D01E4BDB6943F004031C4AD36103
:102554001A4B4022DA60194BDB6803F08003002B2E
:1025640008D0174BDB6943F00203154AD361134BC0
:102574008022DA60114BDB6803F48073002B09D0EE
:102584000F4BDB6943F001030D4AD3610B4B4FF44E
:102594008072DA60094BDB6803F00203002B08D079
:1025A400074BDB6943F02003054AD361034B022246
:1025B400DA6000BFBD465DF8047B7047003C024012
:1025C400D805002080B584B000AF7860396001235D
:1025D400FB730023BB60314B1B7E012B01D1022313
:1025E40058E02E4B01221A764CF25030FFF7AAFE27
:1025F4000346FB73FB7B002B48D13B684FF0FF3253
:102604001A607B681B68012B15D17B681B69DAB2E1
:102614007B685B681946104600F044F84CF2503071
:10262400FFF790FE0346FB731D4B1B691C4A23F006
:102634000403136128E07B689B68BB601CE07B6833
:102644001B69DBB21946B86800F050F84CF2503000
:10265400FFF778FE0346FB73114B1B69104A23F006
:10266400FA031361FB7B002B03D03B68BA681A6042
:102674000AE0BB680133BB607B68DA687B689B68EF
:102684001344BA689A42DAD300F078F8034B002274
:102694001A76FB7B18461037BD4680BDD80500204E
:1026A400003C024080B483B000AF03463960FB7144
:1026B4000D4B1B690C4A23F4407313610A4B1B69CD
:1026C400094A43F004031361074B1A69FB791B029F
:1026D4001343054A43F48033136100BF0C37BD46EE
:1026E4005DF8047B704700BF003C024080B485B0B5
:1026F40000AF78600B46FB700023FB60FB78002B77
:1027040002D10023FB6010E0FB78012B03D14FF4CE
:102714008073FB6009E0FB78022B03D14FF4007354
:10272400FB6002E04FF44073FB60134B1B69124AD9
:1027340023F440731361104B1A690F49FB68134368
:102744000B610D4B1B690C4A23F0F80313610A4B10
:102754001A697B68DB001343074A43F002031361E1
:10276400054B1B69044A43F48033136100BF1437DB
:10277400BD465DF8047B7047003C024080B400AF66
:10278400204B1B6803F40073002B17D01D4B1B68F0
:102794001C4A23F4007313601A4B1B68194A43F450
:1027A40000631360174B1B68164A23F4006313601D
:1027B400144B1B68134A43F400731360114B1B68DA
:1027C40003F48063002B17D00E4B1B680D4A23F4CF
:1027D400806313600B4B1B680A4A43F480531360F5
:1027E400084B1B68074A23F480531360054B1B688E
:1027F400044A43F48063136000BFBD465DF8047B64
:10280400704700BF003C024080B489B000AF7860DC
:10281400396000237B6100233B610023BB610023FB
:10282400FB6159E10122FB6902FA03F37B613B6816
:102834001B687A6913403B613A697B699A4240F0AC
:1028440048813B685B6803F00303012B05D03B68B8
:102854005B6803F00303022B30D17B689B68BB6188
:10286400FB695B00032202FA03F3DB43BA691340FA
:10287400BB613B68DA68FB695B0002FA03F3BA697F
:102884001343BB617B68BA699A607B685B68BB6110
:102894000122FB6902FA03F3DB43BA691340BB610B
:1028A4003B685B681B0903F00102FB6902FA03F34E
:1028B400BA691343BB617B68BA695A603B685B6859
:1028C40003F00303032B17D07B68DB68BB61FB6950
:1028D4005B00032202FA03F3DB43BA691340BB61D2
:1028E4003B689A68FB695B0002FA03F3BA69134315
:1028F400BB617B68BA69DA603B685B6803F0030319
:10290400022B23D1FB69DA087B68083253F82230A2
:10291400BB61FB6903F007039B000F2202FA03F378
:10292400DB43BA691340BB613B681A69FB6903F076
:1029340007039B0002FA03F3BA691343BB61FB6903
:10294400DA087B680832B96943F822107B681B688F
:10295400BB61FB695B00032202FA03F3DB43BA6940
:102964001340BB613B685B6803F00302FB695B00D7
:1029740002FA03F3BA691343BB617B68BA691A604C
:102984003B685B6803F44033002B00F0A280002313
:10299400FB60574B5B6C564A43F480435364544B7F
:1029A4005B6C03F48043FB60FB68524AFB699B0841
:1029B400023352F82330BB61FB6903F003039B002D
:1029C4000F2202FA03F3DB43BA691340BB617B684D
:1029D400494A934219D07B68484A934213D07B6892
:1029E400474A93420DD07B68464A934207D07B689E
:1029F400454A934201D1042308E0072306E0032358
:102A040004E0022302E0012300E00023FA6902F05B
:102A1400030292009340BA691343BB613549FB69D1
:102A24009B080233BA6941F82320384B9B68BB6189
:102A34003B69DB43BA691340BB613B685B6803F4E1
:102A44008013002B03D0BA693B691343BB612F4A3F
:102A5400BB6993602D4BDB68BB613B69DB43BA699F
:102A64001340BB613B685B6803F40013002B03D085
:102A7400BA693B691343BB61244ABB69D360234BE6
:102A84005B68BB613B69DB43BA691340BB613B686C
:102A94005B6803F40033002B03D0BA693B6913432A
:102AA400BB611A4ABB695360184B1B68BB613B6925
:102AB400DB43BA691340BB613B685B6803F4803352
:102AC400002B03D0BA693B691343BB610F4ABB694E
:102AD4001360FB690133FB61FB690F2B7FF6A2AE28
:102AE40000BF00BF2437BD465DF8047B704700BFBC
:102AF4000038024000380140000002400004024057
:102B040000080240000C024000100240003C01405A
:102B140080B485B000AF78600B467B807B681A690F
:102B24007B881340002B02D00123FB7301E00023B8
:102B3400FB73FB7B18461437BD465DF8047B704776
:102B440080B400AF034B1B681846BD465DF8047B98
:102B5400704700BF0400002080B500AFFFF7F0FF0E
:102B64000246054B9B689B0A03F007030349CB5CB1
:102B740022FA03F3184680BD00380240FC390008ED
:102B840080B500AFFFF7DCFF0246054B9B685B0B8B
:102B940003F007030349CB5C22FA03F3184680BD14
:102BA40000380240FC39000880B582B000AF78607C
:102BB4007B68002B01D1012342E07B6893F841300C
:102BC400DBB2002B06D17B68002283F840207868B2
:102BD400FEF7B4FB7B68242283F841207B681B68E2
:102BE400DA687B681B6822F40052DA60786800F0C7
:102BF4002BF87B681B681A697B681B6822F4904277
:102C04001A617B681B685A697B681B6822F02A0278
:102C14005A617B681B68DA687B681B6842F400525F
:102C2400DA607B6800225A647B68202283F84120A2
:102C34007B68202283F842207B6800225A630023A9
:102C440018460837BD4680BD2DE9B04FC0B000AF6F
:102C5400C7F8F400D7F8F4301B681B6923F440501C
:102C6400D7F8F430D968D7F8F4301A6840EA010389
:102C74001361D7F8F4309A68D7F8F4301B691A4313
:102C8400D7F8F4305B691A43D7F8F430DB6913439F
:102C9400C7F8F830D7F8F4301B68DB6823F4164122
:102CA40021F00C01D7F8F4301A68D7F8F8300B4348
:102CB400D360D7F8F4301B685B6923F44070D7F80D
:102CC400F4309969D7F8F4301A6840EA0103536183
:102CD400D7F8F4301A688F4B9A4205D0D7F8F430FD
:102CE4001A688D4B9A4204D1FFF74AFFC7F8FC00DB
:102CF40003E0FFF731FFC7F8FC00D7F8F430DB69D5
:102D0400B3F5004F40F00C81D7F8FC300022C7F82F
:102D1400E830C7F8EC20D7E93A4522462B4691180B
:102D2400B9655B41FB65D7E91623214612EB01081F
:102D3400294643EB01094FF000024FF000034FEA2C
:102D4400C90343EA58734FEAC8029046994623469A
:102D540018EB0303C7F8E0302B4649EB0303C7F82D
:102D6400E430D7F8F4305B680022C7F8D830C7F8ED
:102D7400DC20D7E936120B46DB183B65134642EBE1
:102D840003037B65D7E91423D7E93801FDF720FA5B
:102D940002460B46614BA3FB02235B091C01D7F8D7
:102DA400FC300022C7F8D030C7F8D420D7E93489E2
:102DB40042464B469118B9645B41FB64D7E9122340
:102DC400414612EB010A494643EB010B4FF0000266
:102DD4004FF000034FEACB0343EA5A734FEACA02A7
:102DE40092469B4643461AEB0303C7F8C8304B464A
:102DF4004BEB0303C7F8CC30D7F8F4305B68002200
:102E0400C7F8C030C7F8C420D7E930120B46DB1826
:102E14003B64134642EB03037B64D7E91023D7E9F1
:102E24003201FDF7D5F902460B4611463B4BA3FB95
:102E340001235B09642202FB03F3CB1ADB0003F1D9
:102E44003202364BA3FB02235B095B0003F4F873E5
:102E54001C44D7F8FC300022C7F8B830C7F8BC20AF
:102E6400D7E92E8942464B469118B9635B41FB630F
:102E7400D7E90E2341465118396349464B417B63D8
:102E84004FF000024FF00003D7E90CAB5946CB00DA
:102E9400514643EA51735146CA0010461946034647
:102EA40042469B18C7F8B0304B460A4642EB030330
:102EB400C7F8B430D7F8F4305B680022C7F8A830FC
:102EC400C7F8AC20D7E92A120B46DB18BB621346BD
:102ED40042EB0303FB62D7E90A23D7E92C01FDF790
:102EE40077F902460B460D4BA3FB02135B096421E1
:102EF40001FB03F3D31ADB003233084AA2FB03239A
:102F04005B0903F00702D7F8F4301B6822449A6087
:102F140006E100BF00100140001401401F85EB5181
:102F2400D7F8FC300022C7F8A030C7F8A420D7E9AE
:102F3400288942464B46911839625B417B62D7E946
:102F4400082341465418494643EB01054FF000025B
:102F54004FF00003EB0043EA5473E20014461D46AD
:102F64004346E318C7F898304B4645EB0303C7F8CC
:102F74009C30D7F8F4305B680022C7F89030C7F86B
:102F840094204FF000024FF00003D7E9244529466E
:102F94008B00214643EA917321468A00D7E9260132
:102FA400FDF716F902460B46604BA3FB02235B09AF
:102FB4001C01D7F8FC300022C7F88830C7F88C20F1
:102FC400D7E9228942464B469118B9615B41FB61BE
:102FD400D7E9062341465118396149464B417B6183
:102FE4004FF000024FF00003D7E904AB5946CB0081
:102FF400514643EA51735146CA00104619460346E6
:1030040042469B18C7F880304B460A4642EB0303FE
:10301400C7F88430D7F8F4305B680022BB67FA67DE
:103024004FF000024FF00003D7E91E8949468B0098
:10303400414643EA917341468A00D7E92001FDF7EE
:10304400C7F802460B461146384BA3FB01235B0924
:10305400642202FB03F3CB1A1B013233334AA2FB73
:1030640003235B0903F0F0031C44D7F8FC3000226F
:103074003B677A67D7E91C8942464B469118B96089
:103084005B41FB60D7E90223414651183960494648
:103094004B417B604FF000024FF00003D7E900ABD7
:1030A4005946CB00514643EA51735146CA00104673
:1030B4001946034642469B18BB664B460A4642EBFA
:1030C4000303FB66D7F8F4305B6800223B667A663C
:1030D4004FF000024FF00003D7E9188949468B00EE
:1030E400414643EA917341468A00D7E91A01FDF744
:1030F4006FF802460B460D4BA3FB02135B096421D8
:1031040001FB03F3D31A1B013233084AA2FB032346
:103114005B0903F00F02D7F8F4301B6822449A606D
:1031240000BF07F58077BD46BDE8B08F1F85EB5122
:1031340080B400AF044B9B6803F00C031846BD46F3
:103144005DF8047B704700BF0038024080B400AFD4
:10315400044B9B6803F0F0031846BD465DF8047BFE
:10316400704700BF0038024080B400AF044B9B6836
:1031740003F4E0531846BD465DF8047B704700BF76
:103184000038024080B400AF044B9B6803F46043F2
:103194001846BD465DF8047B704700BF0038024006
:1031A40080B400AF044B5B6803F480031846BD464B
:1031B4005DF8047B704700BF0038024080B400AF64
:1031C400044B5B689B09C3F308031846BD465DF8CE
:1031D400047B70470038024080B400AF044B5B6846
:1031E40003F440331846BD465DF8047B704700BFC6
:1031F4000038024080B400AF044B5B6803F03F0327
:103204001846BD465DF8047B704700BF0038024095
:1032140080B582B000AF786000F020F802467B6889
:103224001A607B681B68184600F040F802467B6809
:103234005A607B685B68184600F04EF802467B686B
:103244009A607B685B68184600F05AF802467B680F
:10325400DA6000BF0837BD4680BD000080B582B08B
:1032640000AF00237B60FFF763FF0346082B0CD0FD
:10327400082B0FD8002B02D0042B03D00AE0094BF3
:103284007B600AE0084B7B6007E0082000F04CF804
:10329400786002E0034B7B6000BF7B681846083708
:1032A400BD4680BD0024F40040787D0180B582B025
:1032B40000AF7860FFF74AFF03461B0903F00F03D2
:1032C400044AD35C1A467B68D34018460837BD4687
:1032D40080BD00BFEC39000880B582B000AF7860D3
:1032E400FFF742FF03469B0A044AD35C1A467B68F5
:1032F400D34018460837BD4680BD00BFFC390008DE
:1033040080B582B000AF7860FFF73CFF03465B0BEB
:10331400044AD35C1A467B68D34018460837BD4636
:1033240080BD00BFFC39000890B587B000AF78605D
:1033340000237B610023FB6000233B61FFF730FF28
:10334400F860FB68002B04D0FB68B3F5800F03D052
:1033540005E0124B7B6105E0114B7B6102E00F4BF2
:103364007B6100BF7B68082B13D1FFF743FF024644
:103374007B69B3FBF2F4FFF721FF034603FB04F47C
:10338400FFF72AFF03461B0C01335B00B4FBF3F386
:103394003B613B6918461C37BD4690BD0024F400D0
:1033A40040787D0180B483B000AF78607B68DB68CF
:1033B40003F40053B3F5005F0CBF01230023DBB219
:1033C40018460C37BD465DF8047B704780B483B063
:1033D40000AF786039607B681B6923F440523B6816
:1033E4001A437B681A6100BF0C37BD465DF8047B45
:1033F400704780B483B000AF786039607B685B69E4
:1034040023F440723B681A437B685A6100BF0C374F
:10341400BD465DF8047B70472DE9B04FC0B000AFE6
:10342400C7F8FC00C7F8F810C7F8F420C7F8F03064
:10343400D7F8F430B3F5004F40F00C81D7F8F830EA
:103444000022C7F8E830C7F8EC20D7E93A4522460D
:103454002B46911839665B417B66D7E918232146D0
:1034640012EB0108294643EB01094FF000024FF02B
:1034740000034FEAC90343EA58734FEAC80290466F
:103484009946234618EB0303C7F8E0302B4649EB73
:103494000303C7F8E430D7F8F03000229A46934685
:1034A4001AEB0A03BB654BEB0B03FB65D7E9162349
:1034B400D7E93801FCF78CFE02460B46644BA3FBAC
:1034C40002235B099BB21B019CB2D7F8F83000229F
:1034D400C7F8D830C7F8DC20D7E9368942464B46CE
:1034E400911839655B417B65D7E91423414651182E
:1034F400B96449464B41FB644FF000024FF00003AE
:10350400D7E912AB5946CB00514643EA51735146B1
:10351400CA0010461946034642469B18C7F8D030E5
:103524004B460A4642EB0303C7F8D430D7F8F030D1
:103534000022C7F8C830C7F8CC20D7E932120B46AE
:10354400DB183B64134642EB03037B64D7E9102387
:10355400D7E93401FCF73CFE02460B4611463C4BCE
:10356400A3FB01235B09642202FB03F3CB1ADB00F8
:1035740003F13202364BA3FB02235B099BB25B00CF
:103584009BB203F4F8739BB223449CB2D7F8F8308F
:103594000022C7F8C030C7F8C420D7E930894246B2
:1035A4004B469118B9635B41FB63D7E90E2341464F
:1035B4005118396349464B417B634FF000024FF089
:1035C4000003D7E90CAB5946CB00514643EA51738B
:1035D4005146CA0010461946034642469B18C7F88E
:1035E400B8304B460A4642EB0303C7F8BC30D7F861
:1035F400F0300022C7F8B030C7F8B420D7E92C1255
:103604000B46DB18BB62134642EB0303FB62D7E9AC
:103614000A23D7E92E01FCF7DBFD02460B460C4BCF
:10362400A3FB02135B09642101FB03F3D31ADB0040
:103634003233074AA2FB03235B099BB203F007035F
:103644009BB223449BB21A46D7F8FC309A6008E137
:103654001F85EB51D7F8F8300022C7F8A830C7F817
:10366400AC20D7E92A8942464B46911839625B411E
:103674007B62D7E9082341465418494643EB0105C8
:103684004FF000024FF00003EB0043EA5473E200F2
:1036940014461D464346E318C7F8A0304B4645EB95
:1036A4000303C7F8A430D7F8F0300022C7F89830E5
:1036B400C7F89C204FF000024FF00003D7E92645DD
:1036C40029468B00214643EA917321468A00D7E9B3
:1036D4002801FCF77DFD02460B46654BA3FB022344
:1036E4005B099BB21B019CB2D7F8F8300022C7F8E3
:1036F4009030C7F89420D7E9248942464B46911864
:10370400B9615B41FB61D7E9062341465118396130
:1037140049464B417B614FF000024FF00003D7E96B
:1037240004AB5946CB00514643EA51735146CA0093
:1037340010461946034642469B18C7F888304B4644
:103744000A4642EB0303C7F88C30D7F8F030002266
:10375400C7F88030C7F884204FF000024FF0000310
:10376400D7E9208949468B00414643EA9173414693
:103774008A00D7E92201FCF72BFD02460B461146CD
:103784003B4BA3FB01235B09642202FB03F3CB1A2B
:103794001B013233364AA2FB03235B099BB203F0BD
:1037A400F0039BB223449CB2D7F8F8300022BB67E5
:1037B400FA67D7E91E8942464B469118B9605B41C6
:1037C400FB60D7E9022341465118396049464B4111
:1037D4007B604FF000024FF00003D7E900AB59467D
:1037E400CB00514643EA51735146CA00104619466C
:1037F400034642469B183B674B460A4642EB03038B
:103804007B67D7F8F0300022BB66FA664FF00002FF
:103814004FF00003D7E91A8949468B00414643EA31
:10382400917341468A00D7E91C01FCF7D1FC02469A
:103834000B460F4BA3FB02135B09642101FB03F34B
:10384400D31A1B0132330A4AA2FB03235B099BB23E
:1038540003F00F039BB223449BB21A46D7F8FC3003
:103864009A6000BF07F58077BD46BDE8B08F00BF02
:103874001F85EB5180B588B000AF786039600123B3
:10388400FB770023BB617868FFF78CFD0346002BB0
:1038940049D17B68DB6823F4164323F00C033A68B0
:1038A40051683A68D26811433A68126911433A6818
:1038B40092690A431A437B68DA603B689B6819463D
:1038C4007868FFF783FD3B685B6919467868FFF702
:1038D40090FD07F108031846FFF79AFC7B68144A29
:1038E400934202D17B69BB610CE07B68114A93422D
:1038F40002D13B69BB6105E07B680F4A934201D169
:103904007B69BB61BB69002B0DD03B681B68002B36
:1039140009D00023FB773B689A693B681B68B96947
:103924007868FFF779FDFB7F18462037BD4680BDD8
:1039340000100140004400400014014070B50D4DDA
:103944000D4C641BA4100026A64209D10B4D0C4C4F
:1039540000F018F8641BA4100026A64205D170BD1F
:1039640055F8043B98470136EEE755F8043B984771
:103974000136F2E7143A0008143A0008143A000831
:10398400183A0008F8B500BFF8BC08BC9E4670475A
:0C399400F8B500BFF8BC08BC9E467047A8
:1039A0002E2E2F436F72652F5372632F666C6173D7
:1039B000682E63002E2E2F436F72652F5372632F74
:1039C00072733233322E630000C0000800400000E2
:1039D00003000000000001080000010004000000D6
:1039E00000000208000002000500000000000000C6
:1039F000000000000102030406070809000000009F
:0C3A0000010203044F70656E424C54003C
:083A0C00F8C7FF7F0100000074
:043A1400B9010008EC
:043A1800950100080C
:103A1C00050000000024F40010000000010000006C
:0400000508001EE5EC
:00000001FF
